:100000000C942A000C94CC0D0C9447000C944700DF
:100010000C9447000C9447000C9447000C94470044
:100020000C9447000C9447000C9447000C94470034
:100030000C9447000C9447000C9447000C94470024
:100040000C9447000C9447000C9447000C94470014
:100050000C94470011241FBECFE5D8E0DEBFCDBF12
:1000600010E0A0E6B0E0ECEAFDE102C005900D92E0
:10007000AA39B107D9F710E0AAE9B0E001C01D9292
:10008000A33AB107E1F70E94120D0C94D40E0C9420
:100090000000EF92FF920F931F937B018C0120E0F1
:1000A00030E040E05FE40E94490388238CF0C801FF
:1000B000B70120E030E040E05FE40E94C1010E940F
:1000C000A9039B01AC01205030404040504806C07D
:1000D000C801B7010E94A9039B01AC01B901CA0183
:1000E0001F910F91FF90EF900895A0E0B0E0EBE733
:1000F000F0E00C949D0EDC012B01FA019C919230F2
:1001000008F439C1EB018881823008F433C194309E
:1001100069F4843009F02FC111969C91119789815F
:10012000981709F428C1A9E7B0E025C1843009F483
:1001300021C18230A9F4923009F01DC19A01AD01AC
:1001400088E0EA010990AE01E90109929E0181501F
:10015000C1F7E201898111969C918923818308C1AD
:10016000923009F407C112962D903C901397EB0141
:100170008A819B811496AD90BD90CD90DC901797AD
:10018000EC80FD800E811F819101281B390BB90184
:1001900037FF04C066277727621B730B6032710537
:1001A0000CF061C0121613066CF537014801062EDB
:1001B00004C096948794779467940A94D2F721E0C8
:1001C00030E040E050E004C0220F331F441F551FB1
:1001D0006A95D2F721503040404050402E213F21B7
:1001E00040235123211531054105510521F021E01E
:1001F00030E040E050E079018A01E628F72808293C
:1002000019293CC0232BD1F1260E371E350146019A
:10021000062E04C096948794779467940A94D2F734
:1002200021E030E040E050E004C0220F331F441FC3
:10023000551F6A95D2F721503040404050402A2146
:100240003B214C215D21211531054105510521F04E
:1002500021E030E040E050E059016A01A628B728CB
:10026000C828D9280BC0821593052CF01C01AA249C
:10027000BB24650103C0EE24FF24870111969C91E5
:10028000D20111968C91981709F445C0992339F041
:10029000A80197012A193B094C095D0906C0A6016E
:1002A00095012E193F09400B510B57FD08C01182D3
:1002B0003382228224833583468357831DC081E0A5
:1002C00081833382228288279927DC01821B930B4A
:1002D000A40BB50B84839583A683B7830DC0220F2F
:1002E000331F441F551F24833583468357838281E0
:1002F000938101979383828324813581468157813D
:10030000DA01C9010197A109B1098F5F9F4FAF4F72
:10031000BF4328F30BC0918333822282EA0CFB1C7B
:100320000C1D1D1DE482F5820683178383E0808304
:10033000248135814681578157FF1AC0C901AA27F8
:1003400097FDA095BA2F81709070A070B0705695EF
:10035000479537952795822B932BA42BB52B848318
:100360009583A683B7838281938101969383828349
:10037000DF0101C0D201CD01CDB7DEB7E2E10C94BF
:10038000B90EA0E2B0E0E7ECF1E00C94A90E6983AD
:100390007A838B839C832D833E834F835887E9E048
:1003A000EE2EF12CEC0EFD1ECE010196B7010E943F
:1003B000D2048E010F5E1F4FCE010596B8010E9438
:1003C000D2048A8991E089278A8BC701B801AE01DE
:1003D000475E5F4F0E9475000E94FD03A096E6E015
:1003E0000C94C50EA0E2B0E0E8EFF1E00C94A90E89
:1003F00069837A838B839C832D833E834F835887C5
:10040000F9E0EF2EF12CEC0EFD1ECE010196B701A6
:100410000E94D2048E010F5E1F4FCE010596B801D7
:100420000E94D204C701B801AE01475E5F4F0E942F
:1004300075000E94FD03A096E6E00C94C50EA0E2B4
:10044000B0E0E5E2F2E00C949D0E69837A838B8341
:100450009C832D833E834F835887CE010196BE0136
:10046000675F7F4F0E94D204CE010596BE016F5E8A
:100470007F4F0E94D2049985923088F0898982301A
:10048000C8F0943019F4823051F404C0843029F457
:10049000923081F489E790E0C6C0923049F420E0C0
:1004A0009A858A89981321E02A87CE010996BBC0D4
:1004B000823049F420E09A858A89981321E02A8BBA
:1004C000CE014196B0C02D843E844F8458886D88FB
:1004D0007E888F88988CEE24FF248701AA24BB2471
:1004E000650140E050E060E070E0E0E0F0E0C10174
:1004F00081709070892BE9F0E60CF71C081D191D1E
:100500009A01AB012A0D3B1D4C1D5D1D80E090E062
:10051000A0E0B0E0E614F7040805190520F481E036
:1005200090E0A0E0B0E0BA01A901480F591F6A1F8E
:100530007B1FAA0CBB1CCC1CDD1C97FE08C081E0F5
:1005400090E0A0E0B0E0A82AB92ACA2ADB2A3196B6
:10055000E032F10549F0660C771C881C991C569412
:10056000479437942794C3CFFA85EA892B893C892D
:100570008B859C85280F391F2E5F3F4F17C0CA01FE
:1005800081709070892B61F016950795F794E79428
:1005900080E090E0A0E0B0E8E82AF92A0A2B1B2BC3
:1005A00076956795579547952F5F3F4F77FDE7CF36
:1005B0000CC0440F551F661F771F17FD4160EE0CDE
:1005C000FF1C001F111F21503040403090E05907A0
:1005D00090E0690790E4790760F32B8F3C8FDB0193
:1005E000CA018F779070A070B07080349105A1051A
:1005F000B10561F447FD0AC0E114F10401051105DC
:1006000029F0405C5F4F6F4F7F4F40781A8EFE1786
:1006100011F081E08A8F4D8F5E8F6F8F78A383E01A
:10062000898FCE0149960E94FD03A096E2E10C94C9
:10063000B90EA8E1B0E0EFE1F3E00C94A90E6983F4
:100640007A838B839C832D833E834F83588789E0F5
:10065000E82EF12CEC0EFD1ECE010196B7010E9492
:10066000D2048E010F5E1F4FCE010596B8010E9485
:10067000D2048985823040F08989823028F0C70110
:10068000B8010E944A0501C08FEF6896E6E00C941D
:10069000C50EA8E1B0E0EFE4F3E00C94A90E698385
:1006A0007A838B839C832D833E834F83588789E095
:1006B000E82EF12CEC0EFD1ECE010196B7010E9432
:1006C000D2048E010F5E1F4FCE010596B8010E9425
:1006D000D2048985823040F08989823028F0C701B0
:1006E000B8010E944A0501C08FEF6896E6E00C94BD
:1006F000C50EA8E1B0E0EFE7F3E00C94A90E698322
:100700007A838B839C832D833E834F83588789E034
:10071000E82EF12CEC0EFD1ECE010196B7010E94D1
:10072000D2048E010F5E1F4FCE010596B8010E94C4
:10073000D2048985823040F08989823028F0C7014F
:10074000B8010E944A0501C081E06896E6E00C9479
:10075000C50EACE0B0E0EFEAF3E00C94AD0E6983B7
:100760007A838B839C83CE010196BE016B5F7F4FA2
:100770000E94D2048D81823061F1823050F1843048
:1007800021F48E81882351F12EC02F81388537FDC9
:1007900020C06E812F3131051CF06623F9F023C093
:1007A0008EE190E0821B930B29853A854B855C8511
:1007B00004C056954795379527958A95D2F76623B5
:1007C000B1F050954095309521953F4F4F4F5F4F79
:1007D0000EC020E030E040E050E009C02FEF3FEFD6
:1007E0004FEF5FE704C020E030E040E050E8B9019F
:1007F000CA012C96E2E00C94C90EDF92EF92FF92B0
:100800000F931F93FC01E480F58006811781D1804E
:100810008081823048F480E090E0A0E1B0E0E82AF6
:10082000F92A0A2B1B2BA5C0843009F49FC0823003
:1008300021F4EE24FF24870105C0E114F104010531
:10084000110519F4E0E0F0E096C0628173819FEF3A
:10085000623879070CF05BC022E83FEF261B370BAC
:100860002A3131052CF020E030E040E050E02AC091
:10087000B801A701022E04C0769567955795479554
:100880000A94D2F781E090E0A0E0B0E004C0880FC5
:10089000991FAA1FBB1F2A95D2F70197A109B10979
:1008A0008E219F21A023B1230097A105B10521F03E
:1008B00081E090E0A0E0B0E09A01AB01282B392B59
:1008C0004A2B5B2BDA01C9018F779070A070B07052
:1008D00080349105A105B10539F427FF09C0205CDA
:1008E0003F4F4F4F5F4F04C0215C3F4F4F4F5F4F13
:1008F000E0E0F0E02030A0E03A07A0E04A07A0E402
:100900005A0710F0E1E0F0E079018A0127C0603871
:10091000710564F5FB01E158FF4FD801C7018F77DE
:100920009070A070B07080349105A105B10539F4C4
:10093000E7FE0DC080E490E0A0E0B0E004C08FE3EB
:1009400090E0A0E0B0E0E80EF91E0A1F1B1F17FFA1
:1009500005C016950795F794E794319687E01695AC
:100960000795F794E7948A95D1F705C0EE24FF2404
:100970008701EFEFF0E06E2F679566276795902F60
:100980009F77D794DD24D7948E2F8695492F462BB9
:10099000582F5D29B701CA011F910F91FF90EF9069
:1009A000DF900895FC01DB01408151812281622F9B
:1009B0006F7770E0221F2227221F9381892F880FD3
:1009C000822B282F30E0991F9927991F11969C930D
:1009D000119721153105A9F54115510561057105DD
:1009E00011F482E037C082E89FEF13969C938E93B8
:1009F00012979A01AB0167E0220F331F441F551F66
:100A00006A95D1F783E08C930DC0220F331F441FEA
:100A1000551F12968D919C911397019713969C9355
:100A20008E931297203080E0380780E0480780E4FA
:100A3000580758F314962D933D934D935C93179755
:100A400008952F3F310579F4411551056105710570
:100A500019F484E08C93089564FF03C081E08C93C3
:100A600012C01C9210C02F57304013963C932E9307
:100A7000129783E08C9387E0440F551F661F771F02
:100A80008A95D1F7706414964D935D936D937C9322
:100A9000179708951F93DC01FB019C91923008F495
:100AA00047C08081823008F443C0943051F41196DD
:100AB0001C91843099F58181682F70E0611B710968
:100AC0003FC0843021F0923031F48230B9F181811D
:100AD000882389F12DC011961C9111978230F1F075
:100AE00081811817D9F412962D913C911397828128
:100AF00093818217930794F028173907BCF0149656
:100B00008D919D910D90BC91A02D248135814681C0
:100B10005781281739074A075B0718F4112341F05A
:100B20000AC082179307A407B50740F4112319F0F0
:100B300061E070E005C06FEF7FEF02C060E070E041
:100B4000CB011F910895DF93CF93CDB7DEB7A7E216
:100B5000B0E0E7E2F0E080818F7B8C93A7E2B0E029
:100B6000E7E2F0E080818F778C93A6E2B0E0E6E2E6
:100B7000F0E080818E7F8C93A6E2B0E0E6E2F0E0C8
:100B800080818D7F8C93A6E2B0E0E6E2F0E0808188
:100B90008B7F8C93A6E2B0E0E6E2F0E08081806893
:100BA0008C93CF91DF910895DF93CF930F92CDB7C0
:100BB000DEB78983A7E2B0E0E7E2F0E08081982F1A
:100BC000907E8981892B8C93A6E2B0E0E6E2F0E08A
:100BD000808180648C93E6E2F0E08081882F90E051
:100BE0008071907095958795959587959595879542
:100BF00095958795009779F3A6E2B0E0E6E2F0E0FC
:100C0000808180618C93E4E2F0E0808191810F909B
:100C1000CF91DF910895DF93CF9300D00F92CDB79E
:100C2000DEB789836A834B838981843008F054C09E
:100C30008A81883008F050C08B818F3F29F58981E7
:100C4000882F90E0880F991FFC01EF57FF4FA0817C
:100C5000B1818981882F90E0880F991FFC01EF579F
:100C6000FF4F0190F081E02D8081482F8A81282F4D
:100C700030E081E090E0022E02C0880F991F0A94B4
:100C8000E2F7842B8C9328C08B81882329F58981F6
:100C9000882F90E0880F991FFC01EF57FF4FA0812C
:100CA000B1818981882F90E0880F991FFC01EF574F
:100CB000FF4F0190F081E02D8081482F8A81282FFD
:100CC00030E081E090E0022E02C0880F991F0A9464
:100CD000E2F7809584238C930F900F900F90CF9123
:100CE000DF910895DF93CF9300D00F92CDB7DEB799
:100CF0008A836B838A81843050F58B81883038F504
:100D00008A81882F90E0880F991FFC01E757FF4FD9
:100D10000190F081E02D8081482F50E08B81282FB9
:100D200030E081E090E002C0880F991F2A95E2F739
:100D30009A01282339238B81882F90E0A90102C0D2
:100D4000559547958A95E2F7CA01898302C08FEFCE
:100D5000898389810F900F900F90CF91DF91089533
:100D6000DF93CF9300D00F92CDB7DEB789836A832C
:100D70004B838981843008F054C08A81883008F020
:100D800050C08B818F3F29F58981882F90E0880F93
:100D9000991FFC01EF56FF4FA081B1818981882FF7
:100DA00090E0880F991FFC01EF56FF4F0190F081F2
:100DB000E02D8081482F8A81282F30E081E090E06B
:100DC000022E02C0880F991F0A94E2F7842B8C939D
:100DD00028C08B81882329F58981882F90E0880F8E
:100DE000991FFC01EF56FF4FA081B1818981882FA7
:100DF00090E0880F991FFC01EF56FF4F0190F081A2
:100E0000E02D8081482F8A81282F30E081E090E01A
:100E1000022E02C0880F991F0A94E2F7809584235E
:100E20008C930F900F900F90CF91DF910895DF93E7
:100E3000CF9300D0CDB7DEB789836A8389818430B0
:100E400068F48981882F90E0880F991FFC01EF5684
:100E5000FF4F0190F081E02D8A8180830F900F90E9
:100E6000CF91DF910895DF93CF9300D0CDB7DEB758
:100E700089836A838981843068F48981882F90E02E
:100E8000880F991FFC01EF57FF4F0190F081E02D73
:100E90008A8180830F900F90CF91DF910895DF9327
:100EA000CF93CDB7DEB7E8970FB6F894DEBF0FBE8D
:100EB000CDBF80E090E0A0EFB1E48DAB9EABAFABD7
:100EC000B8AF6DA97EA98FA998AD20E030E84BE3BB
:100ED00055E40E941F02DC01CB0189AB9AABABAB9E
:100EE000BCAB69A97AA98BA99CA920E030E040E8B5
:100EF0005FE30E94790388232CF481E090E098ABB3
:100F00008FA73FC069A97AA98BA99CA920E03FEFD0
:100F10004FE757E40E94190318164CF56DA97EA9F6
:100F20008FA998AD20E030E040E251E40E941F021A
:100F3000DC01CB01BC01CD010E944900DC01CB01E9
:100F400098AB8FA70FC08CE291E09EA78DA78DA5CF
:100F50009EA50197F1F79EA78DA78FA598A9019748
:100F600098AB8FA78FA598A9009769F714C069A9B6
:100F70007AA98BA99CA90E944900DC01CB0198ABFE
:100F80008FA78FA598A99CA78BA78BA59CA5019738
:100F9000F1F79CA78BA788E30E94360980E090E0D8
:100FA000A0E8BFE38FA398A7A9A7BAA76FA178A5C8
:100FB00089A59AA520E030E84BE355E40E941F0282
:100FC000DC01CB018BA39CA3ADA3BEA36BA17CA131
:100FD0008DA19EA120E030E040E85FE30E9479030C
:100FE00088232CF481E090E09AA389A33FC06BA1F1
:100FF0007CA18DA19EA120E03FEF4FE757E40E9426
:10100000190318164CF56FA178A589A59AA520E0BB
:1010100030E040E251E40E941F02DC01CB01BC0140
:10102000CD010E944900DC01CB019AA389A30FC026
:101030008CE291E098A38F8F8F8D98A10197F1F7A3
:1010400098A38F8F89A19AA101979AA389A389A1B7
:101050009AA1009769F714C06BA17CA18DA19EA1F4
:101060000E944900DC01CB019AA389A389A19AA11E
:101070009E8F8D8F8D8D9E8D0197F1F79E8F8D8F19
:101080008CE00E94360980E090E0A0E8BFE3898F01
:101090009A8FAB8FBC8F698D7A8D8B8D9C8D20E064
:1010A00030E84BE355E40E941F02DC01CB018D8B3D
:1010B0009E8BAF8BB88F6D897E898F89988D20E04C
:1010C00030E040E85FE30E94790388232CF481E05C
:1010D00090E09C8B8B8B3FC06D897E898F89988D2A
:1010E00020E03FEF4FE757E40E94190318164CF534
:1010F000698D7A8D8B8D9C8D20E030E040E251E44B
:101100000E941F02DC01CB01BC01CD010E944900FD
:10111000DC01CB019C8B8B8B0FC08CE291E09A8B16
:10112000898B89899A890197F1F79A8B898B8B89A9
:101130009C8901979C8B8B8B8B899C89009769F785
:1011400014C06D897E898F89988D0E944900DC01C9
:10115000CB019C8B8B8B8B899C89988B8F878F8500
:1011600098890197F1F7988B8F8781E00E94360963
:1011700080E090E0A0E0B0E48B879C87AD87BE87DD
:101180006B857C858D859E8520E030E84BE355E4BA
:101190000E941F02DC01CB018F839887A987BA8741
:1011A0006F81788589859A8520E030E040E85FE3AB
:1011B0000E94790388232CF481E090E09E838D8344
:1011C0003FC06F81788589859A8520E03FEF4FE7A2
:1011D00057E40E94190318164CF56B857C858D85A4
:1011E0009E8520E030E040E251E40E941F02DC01D5
:1011F000CB01BC01CD010E944900DC01CB019E83E3
:101200008D830FC08CE291E09C838B838B819C81CA
:101210000197F1F79C838B838D819E8101979E833B
:101220008D838D819E81009769F714C06F817885C9
:1012300089859A850E944900DC01CB019E838D83BC
:101240008D819E819A83898389819A810197F1F7A3
:101250009A83898386E00E943609E8960FB6F8944F
:10126000DEBF0FBECDBFCF91DF910895DF93CF9347
:10127000CDB7DEB72F970FB6F894DEBF0FBECDBF48
:101280008F8781E067E040E00E940B0681E066E026
:1012900040E00E940B0681E065E04FEF0E940B06E4
:1012A00080E06F850E94330781E065E040E00E94A6
:1012B0000B0680E090E0A0EAB0E48B879C87AD87C6
:1012C000BE876B857C858D859E8520E030E84BE36D
:1012D00055E40E941F02DC01CB018F839887A98708
:1012E000BA876F81788589859A8520E030E040E86B
:1012F0005FE30E94790388232CF481E090E09E83D1
:101300008D833FC06F81788589859A8520E03FEF86
:101310004FE757E40E94190318164CF56B857C853E
:101320008D859E8520E030E040E251E40E941F025E
:10133000DC01CB01BC01CD010E944900DC01CB01E5
:101340009E838D830FC08CE291E09C838B838B8185
:101350009C810197F1F79C838B838D819E810197FE
:101360009E838D838D819E81009769F714C06F8164
:10137000788589859A850E944900DC01CB019E838E
:101380008D838D819E819A83898389819A8101973A
:10139000F1F79A83898381E065E04FEF0E940B06A5
:1013A0002F960FB6F894DEBF0FBECDBFCF91DF9161
:1013B0000895DF93CF93CDB7DEB72F970FB6F8948C
:1013C000DEBF0FBECDBF8F8781E067E04FEF0E9489
:1013D0000B0681E066E040E00E940B0681E065E0DC
:1013E0004FEF0E940B0680E06F850E94330781E07B
:1013F00065E040E00E940B0680E090E0A0EAB0E4E7
:101400008B879C87AD87BE876B857C858D859E8508
:1014100020E030E84BE355E40E941F02DC01CB01E1
:101420008F839887A987BA876F81788589859A8500
:1014300020E030E040E85FE30E94790388232CF449
:1014400081E090E09E838D833FC06F8178858985A0
:101450009A8520E03FEF4FE757E40E9419031816E2
:101460004CF56B857C858D859E8520E030E040E2E3
:1014700051E40E941F02DC01CB01BC01CD010E949E
:101480004900DC01CB019E838D830FC08CE291E08B
:101490009C838B838B819C810197F1F79C838B8349
:1014A0008D819E8101979E838D838D819E81009782
:1014B00069F714C06F81788589859A850E944900F3
:1014C000DC01CB019E838D838D819E819A838983EC
:1014D00089819A810197F1F79A83898381E065E098
:1014E0004FEF0E940B062F960FB6F894DEBF0FBE8B
:1014F000CDBFCF91DF910895DF93CF93CDB7DEB706
:1015000061970FB6F894DEBF0FBECDBF998B888B65
:101510001F8686C08F85282F30E088899989FC0135
:10152000E20FF31F80810E94D9098F858F3019F453
:1015300080EC0E9436098F858F5F8F8780E090E076
:10154000A8E4B2E48B879C87AD87BE876B857C85DA
:101550008D859E8520E030E84BE355E40E941F0214
:10156000DC01CB018F839887A987BA876F81788543
:1015700089859A8520E030E040E85FE30E947903A6
:1015800088232CF481E090E09E838D833FC06F819F
:10159000788589859A8520E03FEF4FE757E40E94E0
:1015A000190318164CF56B857C858D859E8520E08A
:1015B00030E040E251E40E941F02DC01CB01BC019B
:1015C000CD010E944900DC01CB019E838D830FC0B9
:1015D0008CE291E09C838B838B819C810197F1F756
:1015E0009C838B838D819E8101979E838D838D81CA
:1015F0009E81009769F714C06F81788589859A85E7
:101600000E944900DC01CB019E838D838D819E81E8
:101610009A83898389819A810197F1F79A838983D3
:101620008F85282F30E088899989FC01E20FF31F0C
:101630008081882309F06ECF61960FB6F894DEBFE3
:101640000FBECDBFCF91DF910895DF93CF9300D030
:101650000F92CDB7DEB79B838A838A819B8127E275
:101660008031920708F487C08A819B8120E137E2AC
:10167000B9010E944C0ECB0189838981805D0E9453
:10168000D9098981282F30E080E197E2A901489F9C
:101690009001499F300D589F300D11248A819B8104
:1016A000821B930B9B838A838A819B8128EE33E084
:1016B000B9010E944C0ECB0189838981805D0E9413
:1016C000D9098981282F30E088EE93E0A901489F4D
:1016D0009001499F300D589F300D11248A819B81C4
:1016E000821B930B9B838A838A819B8124E630E053
:1016F000B9010E944C0ECB0189838981805D0E94D3
:10170000D9098981282F30E08CE99FEFAC01249F13
:10171000C001259F900D349F900D11249C018A815A
:101720009B81820F931F9B838A838A819B812AE0FE
:1017300030E0B9010E944C0ECB0189838981805D24
:101740000E94D9098981882F90E09C01220F331FC4
:10175000C901880F991F880F991F820F931F9095B9
:1017600081959F4F982F8A81890F89838981805D18
:101770000E94D909E7C08A819B8153E0883E950782
:1017800008F467C08A819B8128EE33E0B9010E948A
:101790004C0ECB0189838981805D0E94D9098981A2
:1017A000282F30E088EE93E0A901489F9001499FDF
:1017B000300D589F300D11248A819B81821B930B21
:1017C0009B838A838A819B8124E630E0B9010E9451
:1017D0004C0ECB0189838981805D0E94D909898162
:1017E000282F30E08CE99FEFAC01249FC001259F9A
:1017F000900D349F900D11249C018A819B81820F52
:10180000931F9B838A838A819B812AE030E0B90100
:101810000E944C0ECB0189838981805D0E94D90989
:101820008981882F90E09C01220F331FC901880F06
:10183000991F880F991F820F931F909581959F4F35
:10184000982F8A81890F89838981805D0E94D909B7
:1018500079C08A819B818436910508F447C08A81CA
:101860009B8124E630E0B9010E944C0ECB018983B4
:101870008981805D0E94D9098981282F30E08CE917
:101880009FEFAC01249FC001259F900D349F900DC8
:1018900011249C018A819B81820F931F9B838A83E1
:1018A0008A819B812AE030E0B9010E944C0ECB0175
:1018B00089838981805D0E94D9098981882F90E080
:1018C0009C01220F331FC901880F991F880F991F90
:1018D000820F931F909581959F4F982F8A81890F32
:1018E00089838981805D0E94D9092CC08A819B816E
:1018F0008A30910518F18A819AE0692F0E94400E82
:1019000089838981805D0E94D9098981882F90E02F
:101910009C01220F331FC901880F991F880F991F3F
:10192000820F931F909581959F4F982F8A81890FE1
:1019300089838981805D0E94D90904C08A81805D84
:101940000E94D9090F900F900F90CF91DF910895C9
:10195000DF93CF9300D000D0CDB7DEB789836A8301
:1019600089818031C8F48A81282F30E03C832B8321
:101970008B819C818130910531F02B813C8122301B
:10198000310531F009C0898180580E94360904C0B0
:10199000898180540E9436090F900F900F900F900C
:1019A000CF91DF910895DF93CF93CDB7DEB7A3E555
:1019B000B0E0E3E5F0E080818F7B8C93A3E5B0E0BD
:1019C000E3E5F0E0808188608C93A9E5B0E0E9E58B
:1019D000F0E0808181608C93A3E5B0E0E3E5F0E086
:1019E000808182608C93CF91DF910895DF93CF93B4
:1019F0000F92CDB7DEB78983E2E5F0E0898180837D
:101A00000F90CF91DF910895DF93CF930F92CDB7D1
:101A1000DEB78983ECE5F0E0898180830F90CF9178
:101A2000DF910895EF92FF920F931F93DF93CF936F
:101A3000CDB7DEB781E065E04FEF0E94B00681E0F0
:101A400066E04FEF0E94B00681E067E04FEF0E9432
:101A5000B00680E06FEF0E94170781E063E04FEF70
:101A60000E94B00683E062E040E00E94B0060E945F
:101A70004F07E3E5F0E08AE68083ECE5F0E08FE7EE
:101A80008083EFE4F0E01082EEE4F0E082E0808317
:101A9000E5E5F0E083E08083AFE5B0E0EFE5F0E07E
:101AA000808180688C93ABE5B0E0EBE5F0E080816D
:101AB00080648C9380919A008330E1F720919B00A1
:101AC00030919C0080919D0090919E00820F931F09
:101AD0009C0140E050E080E492E4AFE0B0E0BC0163
:101AE000CD010E94820EDA01C9019093A00080937B
:101AF0009F0080919B0090919C00CC01A0E0B0E001
:101B000024E630E040E050E0BC01CD010E94210E0F
:101B10007B018C0120919B0030919C0080919D0065
:101B200090919E00820F931F9C0140E050E0C801FD
:101B3000B7010E94600EDA01C9019093A200809360
:101B4000A10080E061E00E94A80C80E690E00E9485
:101B50007C0A8AE061E00E94A80C80919F0090912D
:101B6000A0000E94250B80E062E00E94A80C8CE699
:101B700090E00E947C0A8BE062E00E94A80C8091B9
:101B8000A1009091A2000E94250BE5E5F0E083E022
:101B9000808310929A008ECF1F920F920FB60F92F1
:101BA00011248F939F93EF93FF93DF93CF93CDB740
:101BB000DEB780919A00882371F4ECE4F0E01182A2
:101BC0001082E5E5F0E082E0808380919A008F5FEB
:101BD00080939A002BC080919A008130B1F4ECE49C
:101BE000F0E08081918190939C0080939B00ECE4D5
:101BF000F0E011821082E5E5F0E083E080838091DF
:101C00009A008F5F80939A0011C080919A00823071
:101C100069F4ECE4F0E08081918190939E008093E0
:101C20009D0080919A008F5F80939A00CF91DF9101
:101C3000FF91EF919F918F910F900FBE0F901F908A
:101C40001895629FD001739FF001829FE00DF11DF6
:101C5000649FE00DF11D929FF00D839FF00D749F26
:101C6000F00D659FF00D9927729FB00DE11DF91FD2
:101C7000639FB00DE11DF91FBD01CF01112408952F
:101C8000991B79E004C0991F961708F0961B881FCE
:101C90007A95C9F780950895AA1BBB1B51E107C02F
:101CA000AA1FBB1FA617B70710F0A61BB70B881FEC
:101CB000991F5A95A9F780959095BC01CD0108957B
:101CC000A1E21A2EAA1BBB1BFD010DC0AA1FBB1F40
:101CD000EE1FFF1FA217B307E407F50720F0A21BB2
:101CE000B30BE40BF50B661F771F881F991F1A941F
:101CF00069F760957095809590959B01AC01BD0149
:101D0000CF01089597FB092E05260ED057FD04D06C
:101D1000D7DF0AD0001C38F45095409530952195B6
:101D20003F4F4F4F5F4F0895F6F790958095709510
:101D300061957F4F8F4F9F4F08952F923F924F9203
:101D40005F926F927F928F929F92AF92BF92CF924B
:101D5000DF92EF92FF920F931F93CF93DF93CDB754
:101D6000DEB7CA1BDB0B0FB6F894DEBF0FBECDBFCC
:101D700009942A88398848885F846E847D848C849D
:101D80009B84AA84B984C884DF80EE80FD800C81A6
:101D90001B81AA81B981CE0FD11D0FB6F894DEBF89
:0C1DA0000FBECDBFED010895F894FFCFF9
:101DAC006672657175656E63793A20004475747955
:101DBC00204379636C653A200000000000000000AD
:101DCC00003B00380035003200390036003300305B
:0A1DDC00003A003700340031000027
:00000001FF
