:100000000C942A000C943F000C943F000C943F0089
:100010000C943F000C943F000C943F000C943F0064
:100020000C943F000C943F000C943F000C943F0054
:100030000C943F000C943F000C943F000C943F0044
:100040000C943F000C943F000C943F000C943F0034
:100050000C943F0011241FBECFE5D8E0DEBFCDBF1A
:1000600010E0A0E6B0E0ECE6F5E002C005900D92ED
:10007000A837B107D9F70E942C020C94B4020C9453
:100080000000DF93CF93CDB7DEB7A7E2B0E0E7E2A1
:10009000F0E080818F7B8C93A7E2B0E0E7E2F0E0B4
:1000A00080818F778C93A6E2B0E0E6E2F0E0808179
:1000B0008E7F8C93A6E2B0E0E6E2F0E080818D7F57
:1000C0008C93A6E2B0E0E6E2F0E080818B7F8C9337
:1000D000A6E2B0E0E6E2F0E0808180688C93CF9108
:1000E000DF910895DF93CF930F92CDB7DEB7898369
:1000F000A7E2B0E0E7E2F0E08081982F907E89816E
:10010000892B8C93A6E2B0E0E6E2F0E08081806487
:100110008C93E6E2F0E08081882F90E0807190700F
:1001200095958795959587959595879595958795B7
:10013000009779F3A6E2B0E0E6E2F0E0808180612A
:100140008C93E4E2F0E0808191810F90CF91DF9178
:100150000895DF93CF9300D00F92CDB7DEB7898398
:100160006A834B838981843008F054C08A81883047
:1001700008F050C08B818F3F29F58981882F90E04E
:10018000880F991FFC01E05AFF4FA081B18189813E
:10019000882F90E0880F991FFC01E05AFF4F0190D3
:1001A000F081E02D8081482F8A81282F30E081E086
:1001B00090E0022E02C0880F991F0A94E2F7842B68
:1001C0008C9328C08B81882329F58981882F90E022
:1001D000880F991FFC01E05AFF4FA081B1818981EE
:1001E000882F90E0880F991FFC01E05AFF4F019083
:1001F000F081E02D8081482F8A81282F30E081E036
:1002000090E0022E02C0880F991F0A94E2F78095B1
:1002100084238C930F900F900F90CF91DF910895CE
:10022000DF93CF9300D00F92CDB7DEB78A836B8375
:100230008A81843050F58B81883038F58A81882F07
:1002400090E0880F991FFC01E859FF4F0190F08161
:10025000E02D8081482F50E08B81282F30E081E015
:1002600090E002C0880F991F2A95E2F79A0128238F
:1002700039238B81882F90E0A90102C055954795BD
:100280008A95E2F7CA01898302C08FEF8983898149
:100290000F900F900F90CF91DF910895DF93CF9340
:1002A00000D00F92CDB7DEB789836A834B838981F3
:1002B000843008F054C08A81883008F050C08B81A7
:1002C0008F3F29F58981882F90E0880F991FFC01C5
:1002D000E059FF4FA081B1818981882F90E0880F7C
:1002E000991FFC01E059FF4F0190F081E02D8081C2
:1002F000482F8A81282F30E081E090E0022E02C052
:10030000880F991F0A94E2F7842B8C9328C08B8165
:10031000882329F58981882F90E0880F991FFC0197
:10032000E059FF4FA081B1818981882F90E0880F2B
:10033000991FFC01E059FF4F0190F081E02D808171
:10034000482F8A81282F30E081E090E0022E02C001
:10035000880F991F0A94E2F7809584238C930F905D
:100360000F900F90CF91DF910895DF93CF9300D03E
:10037000CDB7DEB789836A838981843068F4898147
:10038000882F90E0880F991FFC01E059FF4F0190E2
:10039000F081E02D8A8180830F900F90CF91DF91C3
:1003A0000895DF93CF9300D0CDB7DEB789836A83FA
:1003B0008981843068F48981882F90E0880F991FA3
:1003C000FC01E05AFF4F0190F081E02D8A8180838B
:1003D0000F900F90CF91DF910895DF93CF93CDB71A
:1003E000DEB7A3E5B0E0E3E5F0E080818F7B8C939E
:1003F000A3E5B0E0E3E5F0E0808188608C93A9E5B7
:10040000B0E0E9E5F0E0808181608C93A3E5B0E0A5
:10041000E3E5F0E0808182608C93CF91DF910895D5
:10042000DF93CF930F92CDB7DEB78983E2E5F0E09B
:10043000898180830F90CF91DF910895DF93CF93CF
:100440000F92CDB7DEB78983ECE5F0E08981808338
:100450000F90CF91DF9108950F931F93DF93CF9368
:1004600000D0CDB7DEB783E065E04FEF0E944E01CC
:1004700080E060E040E00E944E010E944100EFE415
:10048000F0E082E88083EEE4F0E08AE18083E6E455
:10049000F0E080E29EE49183808380E00E9472001D
:1004A0009A8389830AE410E089819A81CC01A0E0D3
:1004B000B0E028EE33E040E050E0BC01CD010E9406
:1004C0007302DC01CB012FEF33E040E050E0BC01D0
:1004D000CD010E949202DA01C90188519C4FF801B6
:1004E00091838083DACF629FD001739FF001829F56
:1004F000E00DF11D649FE00DF11D929FF00D839FB3
:10050000F00D749FF00D659FF00D9927729FB00D4F
:10051000E11DF91F639FB00DE11DF91FBD01CF0162
:1005200011240895A1E21A2EAA1BBB1BFD010DC0C8
:10053000AA1FBB1FEE1FFF1FA217B307E407F50793
:1005400020F0A21BB30BE40BF50B661F771F881F6F
:10055000991F1A9469F760957095809590959B0105
:0C056000AC01BD01CF010895F894FFCF5D
:10056C003B003800350032003900360033003000D3
:08057C003A00370034003100A1
:00000001FF
